:100000000C9459000C9481000C9481000C94810094
:100010000C9481000C9481000C9481000C9481005C
:100020000C9481000C9481000C9481000C9481004C
:100030000C9481000C9481000C9481000C9481003C
:100040000C9488060C9481000C9456060C9430068F
:100050000C9481000C9481000C9481000C9481001C
:100060000C94D2060C9481000000000025002800AA
:100070002B00040404040404040402020202020229
:10008000030303030303010204081020408001025C
:1000900004081020010204081020000000080002DB
:1000A0000100000304070000000000000000F10749
:1000B000040B11241FBECFEFD8E0DEBFCDBF23E07D
:1000C000A6E8B1E001C01D92AE30B207E1F711E041
:1000D000A0E0B1E0E8E5FBE102C005900D92A63892
:1000E000B107D9F710E0C8E5D0E004C02197FE01C0
:1000F0000E947F0BC735D107C9F70E9444080C94B2
:100100009F0D0C94000008950895AF92BF92CF9276
:10011000DF92EF92FF920F931F93CF93DF936C01C7
:100120007B018B01040F151FEB015E01AE18BF08A8
:10013000C017D10759F06991D601ED91FC9101905A
:10014000F081E02DC6010995892B79F7C501DF9172
:10015000CF911F910F91FF90EF90DF90CF90BF90C4
:10016000AF900895FC01538D448D252F30E0842FEE
:1001700090E0821B930B541710F0CF9608950197CF
:100180000895FC01918D828D981761F0A28DAE0FBC
:10019000BF2FB11D5D968C91928D9F5F9F73928F43
:1001A00090E008958FEF9FEF08952FB7F894809116
:1001B000450290914602A0914702B09148022FBF9C
:1001C0008093510290935202A0935302B093540231
:1001D00089E492E00E94C10097FF26C02FB7F894EF
:1001E0008091450290914602A0914702B091480249
:1001F0002FBF409151025091520260915302709171
:100200005402841B950BA60BB70B40914D025091E5
:100210004E0260914F027091500284179507A60715
:10022000B707B0F28FEF9FEF0895FC01918D828D9B
:10023000981731F0828DE80FF11D858D90E00895BB
:100240008FEF9FEF0895FC01918D228D892F90E013
:10025000805C9F4F821B91098F739927089589E4D1
:1002600092E00E94230121E0892B09F420E0822FF3
:10027000089580E090E0892B29F00E942F018111E0
:100280000C9400000895FC01A48DA80FB92FB11D96
:10029000A35ABF4F2C91848D90E001968F739927BC
:1002A000848FA689B7892C93A089B1898C9183709A
:1002B00080648C93938D848D981306C00288F38993
:1002C000E02D80818F7D80830895EF92FF920F93C0
:1002D0001F93CF93DF93EC0181E0888F9B8D8C8DF2
:1002E00098131AC0E889F989808185FF15C09FB7E6
:1002F000F894EE89FF896083E889F98980818370A9
:10030000806480839FBF81E090E0DF91CF911F9157
:100310000F91FF90EF900895F62E0B8D10E00F5F78
:100320001F4F0F731127E02E8C8D8E110CC00FB64E
:1003300007FCFACFE889F989808185FFF5CFCE01E6
:100340000E944301F1CFEB8DEC0FFD2FF11DE35A1D
:10035000FF4FF0829FB7F8940B8FEA89FB89808169
:100360008062CFCFCF93DF93EC01888D8823B9F0E3
:10037000AA89BB89E889F9898C9185FD03C08081B0
:1003800086FD0DC00FB607FCF7CF8C9185FFF2CF2D
:10039000808185FFEDCFCE010E944301E9CFDF913F
:1003A000CF91089590E0FC01E656FF4F2491FC01A7
:1003B000EA57FF4F3491FC01EE58FF4FE491EE23D2
:1003C000C9F0222339F0233001F1A8F4213019F1CA
:1003D000223029F1F0E0EE0FFF1FE859FF4FA59101
:1003E000B4918FB7F894EC91611126C030953E23FB
:1003F0003C938FBF08952730A9F02830C9F02430EE
:1004000049F7809180008F7D03C0809180008F77B5
:1004100080938000DFCF84B58F7784BDDBCF84B538
:100420008F7DFBCF8091B0008F778093B000D2CFCB
:100430008091B0008F7DF9CF3E2BDACF3FB7F89493
:100440008091390290913A02A0913B02B0913C0216
:1004500026B5A89B05C02F3F19F00196A11DB11D1F
:100460003FBFBA2FA92F982F8827BC01CD01620F5B
:10047000711D811D911D42E0660F771F881F991F16
:100480004A95D1F708958F929F92AF92BF92CF92E3
:10049000DF92EF92FF924B015C010E941E026B0102
:1004A0007C010E941E026C197D098E099F09683E1D
:1004B000734081059105A8F321E0821A9108A108F3
:1004C000B10888EEC80E83E0D81EE11CF11C81142F
:1004D0009104A104B10429F7FF90EF90DF90CF9031
:1004E000BF90AF909F908F9008952091EE01260FBE
:1004F0003327331F21323105ECF420911202FC0125
:1005000090E080E0243069F082E00895A091EE014F
:100510002191AC0142535E4FA40FB52FB11D2C9316
:100520000196861798F38091EE01680F6093EE01B3
:1005300080E0089581E008951092120281E0809396
:1005400014021092130261E082E10E94D20161E084
:1005500083E10E94D201E9EBF0E080818E7F80830D
:1005600080818D7F808388E48093B80085E48093C8
:10057000BC000895CF93DF9391E09093CD01882341
:10058000B9F0C091B800D091BA008091BC008A7BCC
:100590008093BC0060E082E10E94D20160E083E1D0
:1005A0000E94D2010E949C02D093BA00C093B8006E
:1005B000DF91CF9108950895E09144028091430224
:1005C000E81730F4F0E0E855FE4F808190E00895A0
:1005D0008FEF9FEF089590914402809143022FEF97
:1005E0003FEF981748F4E92FF0E0E855FE4F2081DF
:1005F00030E09F5F90934402C901089580914302C7
:1006000090914402891B990B0895CF92DF92EF924B
:10061000FF920F931F93CF93DF937C01CB018A014D
:100620002091A701222389F0EB016B01C40ED51E96
:10063000CC15DD0569F06991D701ED91FC91019030
:10064000F081E02DC7010995F3CF642F0E94750258
:10065000C801DF91CF911F910F91FF90EF90DF9034
:10066000CF900895CF93DF931F92CDB7DEB7698304
:100670002091A7012223F9F020914102203258F065
:1006800021E030E0FC013383228390E080E00F9092
:10069000DF91CF91089580914202E82FF0E0E95771
:1006A000FE4F998190838F5F809342028093410235
:1006B00081E090E0ECCF61E0CE0101960E947502EE
:1006C000F7CFCF92DF92EF92FF920F931F93CF93CA
:1006D000DF93FC01C48121E02093A701C093860130
:1006E00010924202109241028385682B86EE92E0BE
:1006F0000E943203D0914102D13208F092C00E9490
:100700001E026B017C0180911202811165C082E0A2
:100710008093120281E0809314028FEF8093110284
:1007200010923602D0933502A7E8B1E0E5E1F2E09D
:1007300080E0D81385C01092370280913702CC0F29
:10074000C82BC093370280911302813009F07CC01E
:10075000109213020E941E026B017C0180913702ED
:100760008093BB008091C9019091CA01A091CB01F7
:10077000B091CC01892B8A2B8B2B99F00E941E0201
:100780000091C9011091CA012091CB013091CC0197
:100790006C197D098E099F09061717072807390765
:1007A000E0F18091BC0083FDD9CF85EC8093BC0043
:1007B0000E941E026B017C0180911202823009F4BA
:1007C00045C0809111028F3F61F18091110280320A
:1007D00041F18091110225C08091C9019091CA0117
:1007E000A091CB01B091CC01892B8A2B8B2B09F4E2
:1007F0008ACF0E941E020091C9011091CA01209166
:10080000CB013091CC016C197D098E099F09061727
:1008100017072807390708F076CF8091C8010E9492
:10082000BA0210924202109241021092A701DF9187
:10083000CF911F910F91FF90EF90DF90CF9008958F
:100840009D9191938F5F75CF85EEB0CF8091C90157
:100850009091CA01A091CB01B091CC01892B8A2B38
:100860008B2B09F4A9CF0E941E020091C90110919F
:10087000CA012091CB013091CC016C197D098E0900
:100880009F09061717072807390708F095CFC5CF26
:10089000089590E080E008950F931F93CF938C010B
:1008A000C62F0E9461036C2F6460C8010E9461031F
:1008B0006C2F6B7FC8010E94610383EC90E001976D
:1008C000F1F7CF911F910F910895CF93C82F682F03
:1008D000607F8EEF92E00E944C0480E1C89FB001DF
:1008E00011248EEF92E0CF910C944C0481E00E9491
:1008F00065048BE39FE10197F1F70895CF93DF93B0
:10090000CDB7DEB728970FB6F894DEBF0FBECDBFC8
:1009100098E0E6E3F1E0DE01119601900D929A95E0
:10092000E1F790910603961710F46FEF690F70E0EE
:10093000660F771F21E030E02C0F3D1F620F731F01
:10094000FB019081890F806828960FB6F894DEBF6E
:100950000FBECDBFDF91CF910C9465040F931F9311
:10096000CF938C01C62F607F61600E944C0480E1B0
:10097000C89FB00111246160C8010E944C0481E04D
:1009800090E0CF911F910F9108950F931F93CF93F4
:10099000DF938B0128E0829FC001112480640E94B4
:1009A0006504E801085F1F4F69918EEF92E00E9495
:1009B000AE04C017D107C1F7DF91CF911F910F91FE
:1009C0000895FC0180819181009711F00C940C0B2B
:1009D00060E070E0CB010895CF93DF93FC012481A8
:1009E00035814217530788F4C081D181FB016081B2
:1009F0007181CE01840F951F0E94850D009729F00B
:100A00008C1B9D0BDF91CF9108958FEF9FEFFACF55
:100A1000FB0144815581FC01248135812417350770
:100A200078F080819181009759F0FB01608171819C
:100A30006115710529F00E94770D21E0892B09F0DD
:100A400020E0822F08950F931F93CF93DF93EC0143
:100A500088819981009759F02A813B8126173707B1
:100A600030F081E0DF91CF911F910F9108958B01BC
:100A70006F5F7F4F0E94AA0C009759F0998388837B
:100A80001B830A832C813D81232B59F7FC011082A3
:100A9000E8CF80E0E7CFCF93DF93EC0188819981A5
:100AA000009711F00E94210C198218821D821C826D
:100AB0001B821A82DF91CF910895EF92FF920F93DC
:100AC0001F93CF93DF93EC017B01198218821B8265
:100AD0001A821D821C82FB0101900020E9F73197E8
:100AE0008F01061B170BB8010E942305811109C055
:100AF000CE01DF91CF911F910F91FF90EF900C9459
:100B00004B051D830C83B70188819981DF91CF91BB
:100B10001F910F91FF90EF900C94700D9F92AF92E8
:100B2000BF92CF92DF92EF92FF920F931F93CF93DA
:100B3000DF937C016B015A0189012417350720F4EA
:100B40008B2D5901042F182F66E771E0C7010E9411
:100B50005D05D6011496CD91DC91AC16BD0650F51D
:100B60000C171D0708F4E801D601ED91FC911197CF
:100B7000EC0FFD1F908010820D911C910A0D1B1D22
:100B80000115110571F0F80101900020E9F7319786
:100B90005F01A01AB10AB501C7010E9423058111A6
:100BA00016C0C7010E944B05D6018D919C91C80FBC
:100BB000D91F9882C701DF91CF911F910F91FF90AC
:100BC000EF90DF90CF90BF90AF909F900895F70186
:100BD000B582A482B801808191810E94700DE4CF1A
:100BE000FC0180819181009711F00C94210C0895F3
:100BF00085ED8093BC008091C9019091CA01A091BC
:100C0000CB01B091CC010796A11DB11D23E0B69593
:100C1000A795979587952A95D1F72091BC0024FD3B
:100C200003C01092120208954091C9015091CA0167
:100C30006091CB017091CC01452B462B472B69F37A
:100C40000097A105B10541F02AE22A95F1F700C00D
:100C50000197A109B109E1CF8091C8010C94BA02B2
:100C60001F920F920FB60F9211242F933F934F9321
:100C70005F936F937F938F939F93AF93BF93EF9304
:100C8000FF9389E492E00E944301FF91EF91BF91AD
:100C9000AF919F918F917F916F915F914F913F9114
:100CA0002F910F900FBE0F901F9018951F920F92CB
:100CB0000FB60F9211242F938F939F93EF93FF936F
:100CC000E0915902F0915A028081E0915F02F09127
:100CD000600282FD1BC09081809162028F5F8F73E2
:100CE00020916302821741F0E0916202F0E0E75B3D
:100CF000FD4F958F80936202FF91EF919F918F91AD
:100D00002F910F900FBE0F901F9018958081F4CFF8
:100D10001F920F920FB60F9211242F933F938F9330
:100D20009F93AF93BF938091450290914602A0910B
:100D30004702B09148023091380223E0230F2D374B
:100D400058F50196A11DB11D2093380280934502EC
:100D500090934602A0934702B093480280913902D3
:100D600090913A02A0913B02B0913C020196A11DE4
:100D7000B11D8093390290933A02A0933B02B09345
:100D80003C02BF91AF919F918F913F912F910F9016
:100D90000FBE0F901F90189526E8230F0296A11DF5
:100DA000B11DD2CF1F920F920FB60F9211242F9325
:100DB0003F934F935F936F937F938F939F93AF93E3
:100DC000BF93EF93FF938091B900887F803609F439
:100DD0004AC0F0F5883209F4A7C018F5803109F44B
:100DE0009BC0B8F4882309F4F9C0883009F494C092
:100DF000FF91EF91BF91AF919F918F917F916F91F3
:100E00005F914F913F912F910F900FBE0F901F90C8
:100E10001895883109F488C0803251F78093110207
:100E200014C0803409F49DC040F48033B9F3883392
:100E3000F9F68093110285ECB0C0803509F485C0C5
:100E4000883509F496C0883499F60E94F805D0CF09
:100E5000883909F48CC038F5883729F050F4883681
:100E600011F0803729F683E080931202109210026D
:100E700057C0883809F47BC0803919F0803809F0F0
:100E8000B7CF80911002803208F071C0E09110025B
:100E900081E08E0F809310028091BB00F0E0E05162
:100EA000FE4F80833DC0803B39F0E0F4803A09F486
:100EB00079C0883A09F09CCF84E0809312021092A6
:100EC000EF011092EE01E0913F02F091400209958E
:100ED0008091EE0181110FC081E08093EE011092AC
:100EE000CE0109C0803C09F4A6CF883C09F4A3CF09
:100EF000883B09F07DCFE091EF0181E08E0F809378
:100F0000EF01F0E0E253FE4F80818093BB009091AF
:100F1000EF018091EE0129C0809137028093BB00E0
:100F200085EC8093BC0064CF9091360280913502AD
:100F3000981758F5E091360281E08E0F80933602C3
:100F4000F0E0EB5EFD4F8081E9CFE091360281E079
:100F50008E0F809336028091BB00F0E0EB5EFD4F78
:100F6000808390913602809135029817C8F285E807
:100F7000D8CFE091360281E08E0F809336028091C7
:100F8000BB00F0E0EB5EFD4F808380911402811185
:100F90005CCF81E08093130284EA8093BC001092BE
:100FA000120226CF85EC8093BC0010921202809131
:100FB0001002803230F4E0911002F0E0E051FE4F78
:100FC00010826091100270E0E0913D02F0913E02CB
:100FD00080EF91E00995109210020ACF1092110251
:100FE00034CFE9E4F2E01382128288EE93E0A0E0CD
:100FF000B0E084839583A683B78322E431E0318314
:10100000208325EC30E03587248724EC30E03787D7
:10101000268720EC30E0318B208B21EC30E0338BC5
:10102000228B22EC30E0358B248B26EC30E0378BA2
:10103000268B118E128E138E148EE6EEF2E0138242
:10104000128284839583A683B78384E591E091839C
:101050008083EEEFF2E01382128286E691E09183C4
:10106000808387E2848380E1818782E082871386A0
:1010700066E771E088EF92E00E945D0566E771E047
:1010800082EF92E00C945D05CF93DF93CDB7DEB78E
:101090006E970FB6F894DEBF0FBECDBF789484B5BF
:1010A000826084BD84B5816084BD85B5826085BD64
:1010B00085B5816085BD80916E00816080936E00F2
:1010C00010928100809181008260809381008091E4
:1010D0008100816080938100809180008160809395
:1010E00080008091B10084608093B1008091B00055
:1010F00081608093B00080917A00846080937A0050
:1011000080917A00826080937A0080917A00816079
:1011100080937A0080917A00806880937A001092A0
:10112000C100E0915902F0915A0282E08083E0917F
:101130005502F09156021082E0915702F091580248
:101140008FEC808310926102E0915D02F0915E026B
:1011500086E08083E0915B02F0915C028081806197
:101160008083E0915B02F0915C02808188608083E3
:10117000E0915B02F0915C02808180688083E09165
:101180005B02F0915C0280818F7D80838AE090E039
:10119000A0E0B0E080934D0290934E02A0934F02E6
:1011A000B0935002109244021092430210924202F5
:1011B000109241020E949C0283E890E090934002CA
:1011C00080933F0284E890E090933E0280933D023A
:1011D0001092030380910803823018F098E09093F6
:1011E00003038093060362E370E080E090E00E94D6
:1011F0004302609109038EEF92E00E94610368EE62
:1012000073E080E090E00E94430260E38EEF92E0A2
:101210000E944C040BE416E4C8010197F1F760E367
:101220008EEF92E00E944C04C8010197F1F760E351
:101230008EEF92E00E944C0483E592E00197F1F773
:1012400060E28EEF92E00E944C0480910303806282
:101250000E94650484E0809304038CE00E9465048E
:101260000E94760482E08093050386E00E94650474
:1012700082E00E9465048BE39FE10197F1F70E94F1
:10128000760468E271E080E00E94C50460E271E0EB
:1012900081E00E94C50468E171E082E00E94C5041B
:1012A00060E171E083E00E94C50468E071E084E0E1
:1012B0000E94C50460E071E085E00E94C50480E002
:1012C000E82E80E0F82E809104038D7F8093040344
:1012D00088600E946504809104038E7F80930403DC
:1012E00088600E94650489E492E00E942301181638
:1012F00019060CF0FAC066E771E0CE0149960E942B
:101300005D050E94D50097FD1BC089831A820D8D53
:101310001E8D0F5F1F4FB801CE0149960E94230515
:10132000882379F3298D3A8D8D8D9E8DBE016F5F57
:101330007F4F820F931F0E94700D1E8F0D8FE1CF84
:101340006EE671E0CE0101960E945D05BE016F5F01
:101350007F4FCE0149960E940805182FCE010196B5
:101360000E94F005112309F4CCC065E771E0CE01BD
:1013700001960E945D0548E050E0BE016F5F7F4F1F
:10138000CE0149960E94EC049C0148E050E0BE0169
:10139000675E7F4FCE0107960E948E05CE010796AD
:1013A0000E94E104D62ECE0107960E94F005CE01E0
:1013B00001960E94F00565E771E0CE010D960E944E
:1013C0005D0548E050E0BE01635F7F4FCE01499666
:1013D0000E94EC048C0165E771E0CE0107960E9443
:1013E0005D05A8014F5F5F4FBE01695F7F4FCE0172
:1013F00049960E94EC048C0165E771E0CE010196EC
:101400000E945D0548E050E0BE016F5F7F4FCE0156
:1014100049960E94EC04AC014F5F5F4F9801BE01FA
:10142000675E7F4FCE0143960E948E05CE014396A4
:101430000E94E104C62ECE0143960E94F005CE0123
:1014400001960E94F005CE0107960E94F005CE019C
:101450000D960E94F00565E771E0CE0107960E94A7
:101460005D0548E050E0BE01695F7F4FCE014996BF
:101470000E94EC048C0165E771E0CE0101960E94A8
:101480005D05A8014F5F5F4FBE016F5F7F4FCE01CB
:1014900049960E94EC042D8D3E8DAC014F5F5F4F4D
:1014A000BE01675E7F4FCE010D960E948E05CE0174
:1014B0000D960E94E104162FCE010D960E94F005B4
:1014C000CE0101960E94F005CE0107960E94F0051C
:1014D000612F8C2D0E947E046D2D8EEF92E00E9474
:1014E000AE04CE0149960E94F005E114F10409F41E
:1014F000EACE0E942F01882309F4E5CE0E94000065
:10150000E2CE67E771E0CE0101960E945D05BE0163
:101510006F5F7F4FCE0149960E940805182FCE01BC
:1015200001960E94F005112309F456C065E771E0A9
:10153000CE0101960E945D0546E050E0BE016F5F5E
:101540007F4FCE0149960E94EC049C0146E050E09A
:10155000BE01675E7F4FCE0107960E948E05CE01C9
:1015600007960E94E104162FCE0107960E94F0050F
:10157000CE0101960E94F00565E771E0CE0101966B
:101580000E945D0546E050E0BE016F5F7F4FCE01D7
:1015900049960E94EC042D8D3E8DAC014F5F5F4F4C
:1015A000BE01675E7F4FCE0107960E948E05CE0179
:1015B00001960E94F005612F80E00E947E044B8519
:1015C0005C856F8178858EEF92E00E948500CE0168
:1015D00007960E94F00585CF6EE771E0CE01019677
:1015E0000E945D05BE016F5F7F4FCE0149960E944C
:1015F0000805182FCE0101960E94F005112309F469
:1016000070CF0E9476046DCF82EF92E00E94F005C9
:1016100088EF92E00C94F0051F93FC01992788272E
:10162000BC01E89411911032E9F3193010F01E302A
:10163000C8F31B3251F01D3249F4689406C00E9471
:10164000330B610F711D811D911D119110531A30C3
:10165000B0F33EF490958095709561957F4F8F4FD4
:101660009F4F1F910895592F482F372F262F660F10
:10167000771F881F991F660F771F881F991F620F9A
:10168000731F841F951F660F771F881F991F08956A
:101690002F923F924F925F926F927F928F929F9282
:1016A000AF92BF92CF92DF92EF92FF920F931F9370
:1016B000CF93DF93CDB7DEB7CA1BDB0B0FB6F89421
:1016C000DEBF0FBECDBF09942A88398848885F8461
:1016D0006E847D848C849B84AA84B984C884DF80D2
:1016E000EE80FD800C811B81AA81B981CE0FD11DB6
:1016F0000FB6F894DEBF0FBECDBFED010895EE0F1B
:10170000FF1F0590F491E02D09940F931F93CF9341
:10171000DF938230910510F482E090E0E0910C03B9
:10172000F0910D0330E020E0B0E0A0E0309799F4B4
:101730002115310509F44AC0281B390B2430310525
:10174000D8F58A819B816115710589F1FB0193832D
:101750008283FE0111C040815181028113814817AB
:101760005907E0F04817590799F4109761F012965D
:101770000C93129713961C933296CF01DF91CF9161
:101780001F910F91089500930C0310930D03F4CF54
:101790002115310551F04217530738F0A901DB013B
:1017A0009A01BD01DF01F801C1CFEF01F9CF90939C
:1017B0000D0380930C03CDCFFE01E20FF31F819345
:1017C00091932250310939832883D7CF20910A037E
:1017D00030910B03232B41F42091320130913301DE
:1017E00030930B0320930A03209130013091310193
:1017F0002115310541F42DB73EB740913401509188
:101800003501241B350BE0910A03F0910B03E2171D
:10181000F307A0F42E1B3F0B2817390778F0AC0113
:101820004E5F5F4F2417350748F04E0F5F1F5093F0
:101830000B0340930A03819391939FCFF0E0E0E084
:101840009CCFCF93DF930097E9F0FC01329713828E
:101850001282A0910C03B0910D03ED0130E020E065
:101860001097A1F420813181820F931F20910A03E8
:1018700030910B032817390709F061C0F0930B036F
:10188000E0930A03DF91CF910895EA01CE17DF07B5
:10189000E8F54A815B819E0141155105B1F7E901E7
:1018A000FB83EA8349915991C40FD51FEC17FD07BB
:1018B00061F4808191810296840F951FE9019983DB
:1018C0008883828193819B838A83F0E0E0E0129693
:1018D0008D919C9113970097B9F52D913C9111979B
:1018E000CD010296820F931F20910A0330910B03C2
:1018F0002817390739F6309751F510920D031092D9
:101900000C03B0930B03A0930A03BCCFD383C28311
:1019100040815181840F951FC817D90761F44E5F2C
:101920005F4F88819981480F591F518340838A8175
:101930009B81938382832115310509F0B0CFF09309
:101940000D03E0930C039ECFFD01DC01C0CF138299
:101950001282D7CFB0E0A0E0E0EBFCE00C944A0BA1
:101960008C01009751F4CB010E94850B8C01C801BA
:10197000CDB7DEB7E0E10C94660BFC01E60FF71F74
:101980009C0122503109E217F30708F49DC0D901E8
:10199000CD91DC911197C617D70798F0C530D105C6
:1019A00030F3CE0104978617970708F3C61BD70BB1
:1019B0002297C193D1936D937C93CF010E94210C08
:1019C000D6CF5B01AC1ABD0A4C018C0E9D1EA091B6
:1019D0000C03B0910D03512C412CF12CE12C1097EC
:1019E00031F580910A0390910B038815990509F050
:1019F0005CC04616570608F058C08091300190919F
:101A00003101009741F48DB79EB740913401509158
:101A10003501841B950BE817F90708F055C0F093C2
:101A20000B03E0930A03F90171836083A0CF8D91CA
:101A30009C91119712966C90129713967C90139725
:101A4000A815B90559F56C0142E0C40ED11CCA14A1
:101A5000DB0420F1AC014A195B09DA0112961597F3
:101A600080F06282738251834083D9016D937C93AD
:101A7000E114F10471F0D7011396FC93EE931297E1
:101A800076CF22968C0F9D1FF90191838083F301FD
:101A9000EFCFF0930D03E0930C0369CF481659067E
:101AA00008F42C017D01D3019ACFCB010E94850B54
:101AB0007C01009749F0AE01B8010E94670DC80192
:101AC0000E94210C870153CF10E000E050CFFB01B2
:101AD000DC0102C001900D9241505040D8F70895AA
:101AE000FB01DC0101900D920020E1F70895FB015C
:101AF000DC014150504030F08D910190801919F473
:101B00000020B9F7881B990B0895FB0151915523CB
:101B1000A9F0BF01DC014D9145174111E1F759F4DE
:101B2000CD010190002049F04D9140154111C9F3BC
:101B3000FB014111EFCF81E090E00197089510E0A3
:101B4000C8E5D0E004C0FE010E947F0B2196C93594
:081B5000D107C9F7F894FFCF9B
:101B580001030F0F0F030100000E151B0E0E0000EE
:101B680004041F0404040404000A1F1F0E040000D8
:101B7800000103161C0800000A1F151F1F0A0A1B74
:101B880000000E0380000000400014005400000014
:101B9800000065018500B200B2012301C1001501F2
:101BA80000000000320305034904DB02FE02EB02D9
:101BB800DC0200000000AE048500490448042456F5
:101BC800616C7565735F0024546578745F00244305
:061BD8006C656172000063
:00000001FF
